{
  "_format": "hh-sol-artifact-1",
  "contractName": "MyNFT1",
  "sourceName": "contracts/MyNFT1.sol",
  "abi": [
    {
      "inputs": [],
      "stateMutability": "nonpayable",
      "type": "constructor"
    },
    {
      "anonymous": false,
      "inputs": [
        {
          "indexed": true,
          "internalType": "address",
          "name": "owner",
          "type": "address"
        },
        {
          "indexed": true,
          "internalType": "address",
          "name": "approved",
          "type": "address"
        },
        {
          "indexed": true,
          "internalType": "uint256",
          "name": "tokenId",
          "type": "uint256"
        }
      ],
      "name": "Approval",
      "type": "event"
    },
    {
      "anonymous": false,
      "inputs": [
        {
          "indexed": true,
          "internalType": "address",
          "name": "owner",
          "type": "address"
        },
        {
          "indexed": true,
          "internalType": "address",
          "name": "operator",
          "type": "address"
        },
        {
          "indexed": false,
          "internalType": "bool",
          "name": "approved",
          "type": "bool"
        }
      ],
      "name": "ApprovalForAll",
      "type": "event"
    },
    {
      "anonymous": false,
      "inputs": [
        {
          "indexed": false,
          "internalType": "address",
          "name": "from",
          "type": "address"
        },
        {
          "indexed": false,
          "internalType": "address",
          "name": "to",
          "type": "address"
        },
        {
          "indexed": false,
          "internalType": "uint256",
          "name": "tokenId",
          "type": "uint256"
        }
      ],
      "name": "NftTransfer",
      "type": "event"
    },
    {
      "anonymous": false,
      "inputs": [
        {
          "indexed": true,
          "internalType": "address",
          "name": "previousOwner",
          "type": "address"
        },
        {
          "indexed": true,
          "internalType": "address",
          "name": "newOwner",
          "type": "address"
        }
      ],
      "name": "OwnershipTransferred",
      "type": "event"
    },
    {
      "anonymous": false,
      "inputs": [
        {
          "indexed": true,
          "internalType": "address",
          "name": "from",
          "type": "address"
        },
        {
          "indexed": true,
          "internalType": "address",
          "name": "to",
          "type": "address"
        },
        {
          "indexed": true,
          "internalType": "uint256",
          "name": "tokenId",
          "type": "uint256"
        }
      ],
      "name": "Transfer",
      "type": "event"
    },
    {
      "inputs": [
        {
          "internalType": "address",
          "name": "to",
          "type": "address"
        },
        {
          "internalType": "uint256",
          "name": "tokenId",
          "type": "uint256"
        }
      ],
      "name": "approve",
      "outputs": [],
      "stateMutability": "nonpayable",
      "type": "function"
    },
    {
      "inputs": [
        {
          "internalType": "address",
          "name": "owner",
          "type": "address"
        }
      ],
      "name": "balanceOf",
      "outputs": [
        {
          "internalType": "uint256",
          "name": "",
          "type": "uint256"
        }
      ],
      "stateMutability": "view",
      "type": "function"
    },
    {
      "inputs": [
        {
          "internalType": "uint256",
          "name": "tokenId",
          "type": "uint256"
        }
      ],
      "name": "getApproved",
      "outputs": [
        {
          "internalType": "address",
          "name": "",
          "type": "address"
        }
      ],
      "stateMutability": "view",
      "type": "function"
    },
    {
      "inputs": [
        {
          "internalType": "address",
          "name": "owner",
          "type": "address"
        },
        {
          "internalType": "address",
          "name": "operator",
          "type": "address"
        }
      ],
      "name": "isApprovedForAll",
      "outputs": [
        {
          "internalType": "bool",
          "name": "",
          "type": "bool"
        }
      ],
      "stateMutability": "view",
      "type": "function"
    },
    {
      "inputs": [
        {
          "internalType": "address",
          "name": "recipient",
          "type": "address"
        },
        {
          "internalType": "string",
          "name": "tokenURI",
          "type": "string"
        }
      ],
      "name": "mintNFT",
      "outputs": [
        {
          "internalType": "uint256",
          "name": "",
          "type": "uint256"
        }
      ],
      "stateMutability": "nonpayable",
      "type": "function"
    },
    {
      "inputs": [],
      "name": "name",
      "outputs": [
        {
          "internalType": "string",
          "name": "",
          "type": "string"
        }
      ],
      "stateMutability": "view",
      "type": "function"
    },
    {
      "inputs": [],
      "name": "owner",
      "outputs": [
        {
          "internalType": "address",
          "name": "",
          "type": "address"
        }
      ],
      "stateMutability": "view",
      "type": "function"
    },
    {
      "inputs": [
        {
          "internalType": "uint256",
          "name": "tokenId",
          "type": "uint256"
        }
      ],
      "name": "ownerOf",
      "outputs": [
        {
          "internalType": "address",
          "name": "",
          "type": "address"
        }
      ],
      "stateMutability": "view",
      "type": "function"
    },
    {
      "inputs": [],
      "name": "renounceOwnership",
      "outputs": [],
      "stateMutability": "nonpayable",
      "type": "function"
    },
    {
      "inputs": [
        {
          "internalType": "address",
          "name": "from",
          "type": "address"
        },
        {
          "internalType": "address",
          "name": "to",
          "type": "address"
        },
        {
          "internalType": "uint256",
          "name": "tokenId",
          "type": "uint256"
        }
      ],
      "name": "safeTransferFrom",
      "outputs": [],
      "stateMutability": "nonpayable",
      "type": "function"
    },
    {
      "inputs": [
        {
          "internalType": "address",
          "name": "from",
          "type": "address"
        },
        {
          "internalType": "address",
          "name": "to",
          "type": "address"
        },
        {
          "internalType": "uint256",
          "name": "tokenId",
          "type": "uint256"
        },
        {
          "internalType": "bytes",
          "name": "_data",
          "type": "bytes"
        }
      ],
      "name": "safeTransferFrom",
      "outputs": [],
      "stateMutability": "nonpayable",
      "type": "function"
    },
    {
      "inputs": [
        {
          "internalType": "address",
          "name": "operator",
          "type": "address"
        },
        {
          "internalType": "bool",
          "name": "approved",
          "type": "bool"
        }
      ],
      "name": "setApprovalForAll",
      "outputs": [],
      "stateMutability": "nonpayable",
      "type": "function"
    },
    {
      "inputs": [
        {
          "internalType": "bytes4",
          "name": "interfaceId",
          "type": "bytes4"
        }
      ],
      "name": "supportsInterface",
      "outputs": [
        {
          "internalType": "bool",
          "name": "",
          "type": "bool"
        }
      ],
      "stateMutability": "view",
      "type": "function"
    },
    {
      "inputs": [],
      "name": "symbol",
      "outputs": [
        {
          "internalType": "string",
          "name": "",
          "type": "string"
        }
      ],
      "stateMutability": "view",
      "type": "function"
    },
    {
      "inputs": [
        {
          "internalType": "uint256",
          "name": "tokenId",
          "type": "uint256"
        }
      ],
      "name": "tokenURI",
      "outputs": [
        {
          "internalType": "string",
          "name": "",
          "type": "string"
        }
      ],
      "stateMutability": "view",
      "type": "function"
    },
    {
      "inputs": [
        {
          "internalType": "address",
          "name": "from",
          "type": "address"
        },
        {
          "internalType": "address",
          "name": "to",
          "type": "address"
        },
        {
          "internalType": "uint256",
          "name": "tokenId",
          "type": "uint256"
        }
      ],
      "name": "transferFrom",
      "outputs": [],
      "stateMutability": "nonpayable",
      "type": "function"
    },
    {
      "inputs": [
        {
          "internalType": "uint256",
          "name": "_tokenId",
          "type": "uint256"
        },
        {
          "internalType": "address",
          "name": "to",
          "type": "address"
        }
      ],
      "name": "transferNFT",
      "outputs": [],
      "stateMutability": "payable",
      "type": "function"
    },
    {
      "inputs": [
        {
          "internalType": "address",
          "name": "newOwner",
          "type": "address"
        }
      ],
      "name": "transferOwnership",
      "outputs": [],
      "stateMutability": "nonpayable",
      "type": "function"
    }
  ],
  "bytecode": "0x60806040523480156200001157600080fd5b506040518060400160405280600681526020017f4d794e46543100000000000000000000000000000000000000000000000000008152506040518060400160405280600481526020017f4e46543100000000000000000000000000000000000000000000000000000000815250816000908051906020019062000096929190620001a6565b508060019080519060200190620000af929190620001a6565b505050620000d2620000c6620000d860201b60201c565b620000e060201b60201c565b620002bb565b600033905090565b6000600760009054906101000a900473ffffffffffffffffffffffffffffffffffffffff16905081600760006101000a81548173ffffffffffffffffffffffffffffffffffffffff021916908373ffffffffffffffffffffffffffffffffffffffff1602179055508173ffffffffffffffffffffffffffffffffffffffff168173ffffffffffffffffffffffffffffffffffffffff167f8be0079c531659141344cd1fd0a4f28419497f9722a3daafe3b4186f6b6457e060405160405180910390a35050565b828054620001b49062000256565b90600052602060002090601f016020900481019282620001d8576000855562000224565b82601f10620001f357805160ff191683800117855562000224565b8280016001018555821562000224579182015b828111156200022357825182559160200191906001019062000206565b5b50905062000233919062000237565b5090565b5b808211156200025257600081600090555060010162000238565b5090565b600060028204905060018216806200026f57607f821691505b602082108114156200028657620002856200028c565b5b50919050565b7f4e487b7100000000000000000000000000000000000000000000000000000000600052602260045260246000fd5b61308080620002cb6000396000f3fe6080604052600436106101095760003560e01c80638da5cb5b11610095578063b88d4fde11610064578063b88d4fde1461035a578063c87b56dd14610383578063e985e9c5146103c0578063eacabe14146103fd578063f2fde38b1461043a57610109565b80638da5cb5b146102bf5780639036c050146102ea57806395d89b4114610306578063a22cb4651461033157610109565b806323b872dd116100dc57806323b872dd146101dc57806342842e0e146102055780636352211e1461022e57806370a082311461026b578063715018a6146102a857610109565b806301ffc9a71461010e57806306fdde031461014b578063081812fc14610176578063095ea7b3146101b3575b600080fd5b34801561011a57600080fd5b50610135600480360381019061013091906120bb565b610463565b6040516101429190612998565b60405180910390f35b34801561015757600080fd5b50610160610545565b60405161016d91906129b3565b60405180910390f35b34801561018257600080fd5b5061019d6004803603810190610198919061210d565b6105d7565b6040516101aa91906128fa565b60405180910390f35b3480156101bf57600080fd5b506101da60048036038101906101d5919061207f565b61065c565b005b3480156101e857600080fd5b5061020360048036038101906101fe9190611f25565b610774565b005b34801561021157600080fd5b5061022c60048036038101906102279190611f25565b6107d4565b005b34801561023a57600080fd5b506102556004803603810190610250919061210d565b6107f4565b60405161026291906128fa565b60405180910390f35b34801561027757600080fd5b50610292600480360381019061028d9190611ec0565b6108a6565b60405161029f9190612c15565b60405180910390f35b3480156102b457600080fd5b506102bd61095e565b005b3480156102cb57600080fd5b506102d46109e6565b6040516102e191906128fa565b60405180910390f35b61030460048036038101906102ff9190612136565b610a10565b005b34801561031257600080fd5b5061031b610a68565b60405161032891906129b3565b60405180910390f35b34801561033d57600080fd5b5061035860048036038101906103539190611fef565b610afa565b005b34801561036657600080fd5b50610381600480360381019061037c9190611f74565b610b10565b005b34801561038f57600080fd5b506103aa60048036038101906103a5919061210d565b610b72565b6040516103b791906129b3565b60405180910390f35b3480156103cc57600080fd5b506103e760048036038101906103e29190611ee9565b610cc4565b6040516103f49190612998565b60405180910390f35b34801561040957600080fd5b50610424600480360381019061041f919061202b565b610d58565b6040516104319190612c15565b60405180910390f35b34801561044657600080fd5b50610461600480360381019061045c9190611ec0565b610e0c565b005b60007f80ac58cd000000000000000000000000000000000000000000000000000000007bffffffffffffffffffffffffffffffffffffffffffffffffffffffff1916827bffffffffffffffffffffffffffffffffffffffffffffffffffffffff1916148061052e57507f5b5e139f000000000000000000000000000000000000000000000000000000007bffffffffffffffffffffffffffffffffffffffffffffffffffffffff1916827bffffffffffffffffffffffffffffffffffffffffffffffffffffffff1916145b8061053e575061053d82610f04565b5b9050919050565b60606000805461055490612e75565b80601f016020809104026020016040519081016040528092919081815260200182805461058090612e75565b80156105cd5780601f106105a2576101008083540402835291602001916105cd565b820191906000526020600020905b8154815290600101906020018083116105b057829003601f168201915b5050505050905090565b60006105e282610f6e565b610621576040517f08c379a000000000000000000000000000000000000000000000000000000000815260040161061890612b55565b60405180910390fd5b6004600083815260200190815260200160002060009054906101000a900473ffffffffffffffffffffffffffffffffffffffff169050919050565b6000610667826107f4565b90508073ffffffffffffffffffffffffffffffffffffffff168373ffffffffffffffffffffffffffffffffffffffff1614156106d8576040517f08c379a00000000000000000000000000000000000000000000000000000000081526004016106cf90612bd5565b60405180910390fd5b8073ffffffffffffffffffffffffffffffffffffffff166106f7610fda565b73ffffffffffffffffffffffffffffffffffffffff161480610726575061072581610720610fda565b610cc4565b5b610765576040517f08c379a000000000000000000000000000000000000000000000000000000000815260040161075c90612a95565b60405180910390fd5b61076f8383610fe2565b505050565b61078561077f610fda565b8261109b565b6107c4576040517f08c379a00000000000000000000000000000000000000000000000000000000081526004016107bb90612bf5565b60405180910390fd5b6107cf838383611179565b505050565b6107ef83838360405180602001604052806000815250610b10565b505050565b6000806002600084815260200190815260200160002060009054906101000a900473ffffffffffffffffffffffffffffffffffffffff169050600073ffffffffffffffffffffffffffffffffffffffff168173ffffffffffffffffffffffffffffffffffffffff16141561089d576040517f08c379a000000000000000000000000000000000000000000000000000000000815260040161089490612ad5565b60405180910390fd5b80915050919050565b60008073ffffffffffffffffffffffffffffffffffffffff168273ffffffffffffffffffffffffffffffffffffffff161415610917576040517f08c379a000000000000000000000000000000000000000000000000000000000815260040161090e90612ab5565b60405180910390fd5b600360008373ffffffffffffffffffffffffffffffffffffffff1673ffffffffffffffffffffffffffffffffffffffff168152602001908152602001600020549050919050565b610966610fda565b73ffffffffffffffffffffffffffffffffffffffff166109846109e6565b73ffffffffffffffffffffffffffffffffffffffff16146109da576040517f08c379a00000000000000000000000000000000000000000000000000000000081526004016109d190612b75565b60405180910390fd5b6109e460006113d5565b565b6000600760009054906101000a900473ffffffffffffffffffffffffffffffffffffffff16905090565b6000610a1b836107f4565b9050610a28818385611179565b7f31f718d8f292caffaa57a35771124aaafd9ae788b83c2859405627d6de9b6c3e818385604051610a5b93929190612915565b60405180910390a1505050565b606060018054610a7790612e75565b80601f0160208091040260200160405190810160405280929190818152602001828054610aa390612e75565b8015610af05780601f10610ac557610100808354040283529160200191610af0565b820191906000526020600020905b815481529060010190602001808311610ad357829003601f168201915b5050505050905090565b610b0c610b05610fda565b838361149b565b5050565b610b21610b1b610fda565b8361109b565b610b60576040517f08c379a0000000000000000000000000000000000000000000000000000000008152600401610b5790612bf5565b60405180910390fd5b610b6c84848484611608565b50505050565b6060610b7d82610f6e565b610bbc576040517f08c379a0000000000000000000000000000000000000000000000000000000008152600401610bb390612b35565b60405180910390fd5b6000600660008481526020019081526020016000208054610bdc90612e75565b80601f0160208091040260200160405190810160405280929190818152602001828054610c0890612e75565b8015610c555780601f10610c2a57610100808354040283529160200191610c55565b820191906000526020600020905b815481529060010190602001808311610c3857829003601f168201915b505050505090506000610c66611664565b9050600081511415610c7c578192505050610cbf565b600082511115610cb1578082604051602001610c999291906128d6565b60405160208183030381529060405292505050610cbf565b610cba8461167b565b925050505b919050565b6000600560008473ffffffffffffffffffffffffffffffffffffffff1673ffffffffffffffffffffffffffffffffffffffff16815260200190815260200160002060008373ffffffffffffffffffffffffffffffffffffffff1673ffffffffffffffffffffffffffffffffffffffff16815260200190815260200160002060009054906101000a900460ff16905092915050565b6000610d62610fda565b73ffffffffffffffffffffffffffffffffffffffff16610d806109e6565b73ffffffffffffffffffffffffffffffffffffffff1614610dd6576040517f08c379a0000000000000000000000000000000000000000000000000000000008152600401610dcd90612b75565b60405180910390fd5b610de06008611722565b6000610dec6008611738565b9050610df88482611746565b610e028184611914565b8091505092915050565b610e14610fda565b73ffffffffffffffffffffffffffffffffffffffff16610e326109e6565b73ffffffffffffffffffffffffffffffffffffffff1614610e88576040517f08c379a0000000000000000000000000000000000000000000000000000000008152600401610e7f90612b75565b60405180910390fd5b600073ffffffffffffffffffffffffffffffffffffffff168173ffffffffffffffffffffffffffffffffffffffff161415610ef8576040517f08c379a0000000000000000000000000000000000000000000000000000000008152600401610eef906129f5565b60405180910390fd5b610f01816113d5565b50565b60007f01ffc9a7000000000000000000000000000000000000000000000000000000007bffffffffffffffffffffffffffffffffffffffffffffffffffffffff1916827bffffffffffffffffffffffffffffffffffffffffffffffffffffffff1916149050919050565b60008073ffffffffffffffffffffffffffffffffffffffff166002600084815260200190815260200160002060009054906101000a900473ffffffffffffffffffffffffffffffffffffffff1673ffffffffffffffffffffffffffffffffffffffff1614159050919050565b600033905090565b816004600083815260200190815260200160002060006101000a81548173ffffffffffffffffffffffffffffffffffffffff021916908373ffffffffffffffffffffffffffffffffffffffff160217905550808273ffffffffffffffffffffffffffffffffffffffff16611055836107f4565b73ffffffffffffffffffffffffffffffffffffffff167f8c5be1e5ebec7d5bd14f71427d1e84f3dd0314c0f7b2291e5b200ac8c7c3b92560405160405180910390a45050565b60006110a682610f6e565b6110e5576040517f08c379a00000000000000000000000000000000000000000000000000000000081526004016110dc90612a75565b60405180910390fd5b60006110f0836107f4565b90508073ffffffffffffffffffffffffffffffffffffffff168473ffffffffffffffffffffffffffffffffffffffff16148061115f57508373ffffffffffffffffffffffffffffffffffffffff16611147846105d7565b73ffffffffffffffffffffffffffffffffffffffff16145b80611170575061116f8185610cc4565b5b91505092915050565b8273ffffffffffffffffffffffffffffffffffffffff16611199826107f4565b73ffffffffffffffffffffffffffffffffffffffff16146111ef576040517f08c379a00000000000000000000000000000000000000000000000000000000081526004016111e690612b95565b60405180910390fd5b600073ffffffffffffffffffffffffffffffffffffffff168273ffffffffffffffffffffffffffffffffffffffff16141561125f576040517f08c379a000000000000000000000000000000000000000000000000000000000815260040161125690612a35565b60405180910390fd5b61126a838383611988565b611275600082610fe2565b6001600360008573ffffffffffffffffffffffffffffffffffffffff1673ffffffffffffffffffffffffffffffffffffffff16815260200190815260200160002060008282546112c59190612d8b565b925050819055506001600360008473ffffffffffffffffffffffffffffffffffffffff1673ffffffffffffffffffffffffffffffffffffffff168152602001908152602001600020600082825461131c9190612d04565b92505081905550816002600083815260200190815260200160002060006101000a81548173ffffffffffffffffffffffffffffffffffffffff021916908373ffffffffffffffffffffffffffffffffffffffff160217905550808273ffffffffffffffffffffffffffffffffffffffff168473ffffffffffffffffffffffffffffffffffffffff167fddf252ad1be2c89b69c2b068fc378daa952ba7f163c4a11628f55a4df523b3ef60405160405180910390a4505050565b6000600760009054906101000a900473ffffffffffffffffffffffffffffffffffffffff16905081600760006101000a81548173ffffffffffffffffffffffffffffffffffffffff021916908373ffffffffffffffffffffffffffffffffffffffff1602179055508173ffffffffffffffffffffffffffffffffffffffff168173ffffffffffffffffffffffffffffffffffffffff167f8be0079c531659141344cd1fd0a4f28419497f9722a3daafe3b4186f6b6457e060405160405180910390a35050565b8173ffffffffffffffffffffffffffffffffffffffff168373ffffffffffffffffffffffffffffffffffffffff16141561150a576040517f08c379a000000000000000000000000000000000000000000000000000000000815260040161150190612a55565b60405180910390fd5b80600560008573ffffffffffffffffffffffffffffffffffffffff1673ffffffffffffffffffffffffffffffffffffffff16815260200190815260200160002060008473ffffffffffffffffffffffffffffffffffffffff1673ffffffffffffffffffffffffffffffffffffffff16815260200190815260200160002060006101000a81548160ff0219169083151502179055508173ffffffffffffffffffffffffffffffffffffffff168373ffffffffffffffffffffffffffffffffffffffff167f17307eab39ab6107e8899845ad3d59bd9653f200f220920489ca2b5937696c31836040516115fb9190612998565b60405180910390a3505050565b611613848484611179565b61161f8484848461198d565b61165e576040517f08c379a0000000000000000000000000000000000000000000000000000000008152600401611655906129d5565b60405180910390fd5b50505050565b606060405180602001604052806000815250905090565b606061168682610f6e565b6116c5576040517f08c379a00000000000000000000000000000000000000000000000000000000081526004016116bc90612bb5565b60405180910390fd5b60006116cf611664565b905060008151116116ef576040518060200160405280600081525061171a565b806116f984611b24565b60405160200161170a9291906128d6565b6040516020818303038152906040525b915050919050565b6001816000016000828254019250508190555050565b600081600001549050919050565b600073ffffffffffffffffffffffffffffffffffffffff168273ffffffffffffffffffffffffffffffffffffffff1614156117b6576040517f08c379a00000000000000000000000000000000000000000000000000000000081526004016117ad90612b15565b60405180910390fd5b6117bf81610f6e565b156117ff576040517f08c379a00000000000000000000000000000000000000000000000000000000081526004016117f690612a15565b60405180910390fd5b61180b60008383611988565b6001600360008473ffffffffffffffffffffffffffffffffffffffff1673ffffffffffffffffffffffffffffffffffffffff168152602001908152602001600020600082825461185b9190612d04565b92505081905550816002600083815260200190815260200160002060006101000a81548173ffffffffffffffffffffffffffffffffffffffff021916908373ffffffffffffffffffffffffffffffffffffffff160217905550808273ffffffffffffffffffffffffffffffffffffffff16600073ffffffffffffffffffffffffffffffffffffffff167fddf252ad1be2c89b69c2b068fc378daa952ba7f163c4a11628f55a4df523b3ef60405160405180910390a45050565b61191d82610f6e565b61195c576040517f08c379a000000000000000000000000000000000000000000000000000000000815260040161195390612af5565b60405180910390fd5b80600660008481526020019081526020016000209080519060200190611983929190611ce4565b505050565b505050565b60006119ae8473ffffffffffffffffffffffffffffffffffffffff16611cd1565b15611b17578373ffffffffffffffffffffffffffffffffffffffff1663150b7a026119d7610fda565b8786866040518563ffffffff1660e01b81526004016119f9949392919061294c565b602060405180830381600087803b158015611a1357600080fd5b505af1925050508015611a4457506040513d601f19601f82011682018060405250810190611a4191906120e4565b60015b611ac7573d8060008114611a74576040519150601f19603f3d011682016040523d82523d6000602084013e611a79565b606091505b50600081511415611abf576040517f08c379a0000000000000000000000000000000000000000000000000000000008152600401611ab6906129d5565b60405180910390fd5b805181602001fd5b63150b7a0260e01b7bffffffffffffffffffffffffffffffffffffffffffffffffffffffff1916817bffffffffffffffffffffffffffffffffffffffffffffffffffffffff191614915050611b1c565b600190505b949350505050565b60606000821415611b6c576040518060400160405280600181526020017f30000000000000000000000000000000000000000000000000000000000000008152509050611ccc565b600082905060005b60008214611b9e578080611b8790612ea7565b915050600a82611b979190612d5a565b9150611b74565b60008167ffffffffffffffff811115611be0577f4e487b7100000000000000000000000000000000000000000000000000000000600052604160045260246000fd5b6040519080825280601f01601f191660200182016040528015611c125781602001600182028036833780820191505090505b5090505b60008514611cc557600182611c2b9190612d8b565b9150600a85611c3a9190612ef0565b6030611c469190612d04565b60f81b818381518110611c82577f4e487b7100000000000000000000000000000000000000000000000000000000600052603260045260246000fd5b60200101907effffffffffffffffffffffffffffffffffffffffffffffffffffffffffffff1916908160001a905350600a85611cbe9190612d5a565b9450611c16565b8093505050505b919050565b600080823b905060008111915050919050565b828054611cf090612e75565b90600052602060002090601f016020900481019282611d125760008555611d59565b82601f10611d2b57805160ff1916838001178555611d59565b82800160010185558215611d59579182015b82811115611d58578251825591602001919060010190611d3d565b5b509050611d669190611d6a565b5090565b5b80821115611d83576000816000905550600101611d6b565b5090565b6000611d9a611d9584612c61565b612c30565b905082815260208101848484011115611db257600080fd5b611dbd848285612e33565b509392505050565b6000611dd8611dd384612c91565b612c30565b905082815260208101848484011115611df057600080fd5b611dfb848285612e33565b509392505050565b600081359050611e1281612fee565b92915050565b600081359050611e2781613005565b92915050565b600081359050611e3c8161301c565b92915050565b600081519050611e518161301c565b92915050565b600082601f830112611e6857600080fd5b8135611e78848260208601611d87565b91505092915050565b600082601f830112611e9257600080fd5b8135611ea2848260208601611dc5565b91505092915050565b600081359050611eba81613033565b92915050565b600060208284031215611ed257600080fd5b6000611ee084828501611e03565b91505092915050565b60008060408385031215611efc57600080fd5b6000611f0a85828601611e03565b9250506020611f1b85828601611e03565b9150509250929050565b600080600060608486031215611f3a57600080fd5b6000611f4886828701611e03565b9350506020611f5986828701611e03565b9250506040611f6a86828701611eab565b9150509250925092565b60008060008060808587031215611f8a57600080fd5b6000611f9887828801611e03565b9450506020611fa987828801611e03565b9350506040611fba87828801611eab565b925050606085013567ffffffffffffffff811115611fd757600080fd5b611fe387828801611e57565b91505092959194509250565b6000806040838503121561200257600080fd5b600061201085828601611e03565b925050602061202185828601611e18565b9150509250929050565b6000806040838503121561203e57600080fd5b600061204c85828601611e03565b925050602083013567ffffffffffffffff81111561206957600080fd5b61207585828601611e81565b9150509250929050565b6000806040838503121561209257600080fd5b60006120a085828601611e03565b92505060206120b185828601611eab565b9150509250929050565b6000602082840312156120cd57600080fd5b60006120db84828501611e2d565b91505092915050565b6000602082840312156120f657600080fd5b600061210484828501611e42565b91505092915050565b60006020828403121561211f57600080fd5b600061212d84828501611eab565b91505092915050565b6000806040838503121561214957600080fd5b600061215785828601611eab565b925050602061216885828601611e03565b9150509250929050565b61217b81612dbf565b82525050565b61218a81612dd1565b82525050565b600061219b82612cc1565b6121a58185612cd7565b93506121b5818560208601612e42565b6121be81612fdd565b840191505092915050565b60006121d482612ccc565b6121de8185612ce8565b93506121ee818560208601612e42565b6121f781612fdd565b840191505092915050565b600061220d82612ccc565b6122178185612cf9565b9350612227818560208601612e42565b80840191505092915050565b6000612240603283612ce8565b91507f4552433732313a207472616e7366657220746f206e6f6e20455243373231526560008301527f63656976657220696d706c656d656e74657200000000000000000000000000006020830152604082019050919050565b60006122a6602683612ce8565b91507f4f776e61626c653a206e6577206f776e657220697320746865207a65726f206160008301527f64647265737300000000000000000000000000000000000000000000000000006020830152604082019050919050565b600061230c601c83612ce8565b91507f4552433732313a20746f6b656e20616c7265616479206d696e746564000000006000830152602082019050919050565b600061234c602483612ce8565b91507f4552433732313a207472616e7366657220746f20746865207a65726f2061646460008301527f72657373000000000000000000000000000000000000000000000000000000006020830152604082019050919050565b60006123b2601983612ce8565b91507f4552433732313a20617070726f766520746f2063616c6c6572000000000000006000830152602082019050919050565b60006123f2602c83612ce8565b91507f4552433732313a206f70657261746f7220717565727920666f72206e6f6e657860008301527f697374656e7420746f6b656e00000000000000000000000000000000000000006020830152604082019050919050565b6000612458603883612ce8565b91507f4552433732313a20617070726f76652063616c6c6572206973206e6f74206f7760008301527f6e6572206e6f7220617070726f76656420666f7220616c6c00000000000000006020830152604082019050919050565b60006124be602a83612ce8565b91507f4552433732313a2062616c616e636520717565727920666f7220746865207a6560008301527f726f2061646472657373000000000000000000000000000000000000000000006020830152604082019050919050565b6000612524602983612ce8565b91507f4552433732313a206f776e657220717565727920666f72206e6f6e657869737460008301527f656e7420746f6b656e00000000000000000000000000000000000000000000006020830152604082019050919050565b600061258a602e83612ce8565b91507f45524337323155524953746f726167653a2055524920736574206f66206e6f6e60008301527f6578697374656e7420746f6b656e0000000000000000000000000000000000006020830152604082019050919050565b60006125f0602083612ce8565b91507f4552433732313a206d696e7420746f20746865207a65726f20616464726573736000830152602082019050919050565b6000612630603183612ce8565b91507f45524337323155524953746f726167653a2055524920717565727920666f722060008301527f6e6f6e6578697374656e7420746f6b656e0000000000000000000000000000006020830152604082019050919050565b6000612696602c83612ce8565b91507f4552433732313a20617070726f76656420717565727920666f72206e6f6e657860008301527f697374656e7420746f6b656e00000000000000000000000000000000000000006020830152604082019050919050565b60006126fc602083612ce8565b91507f4f776e61626c653a2063616c6c6572206973206e6f7420746865206f776e65726000830152602082019050919050565b600061273c602983612ce8565b91507f4552433732313a207472616e73666572206f6620746f6b656e2074686174206960008301527f73206e6f74206f776e00000000000000000000000000000000000000000000006020830152604082019050919050565b60006127a2602f83612ce8565b91507f4552433732314d657461646174613a2055524920717565727920666f72206e6f60008301527f6e6578697374656e7420746f6b656e00000000000000000000000000000000006020830152604082019050919050565b6000612808602183612ce8565b91507f4552433732313a20617070726f76616c20746f2063757272656e74206f776e6560008301527f72000000000000000000000000000000000000000000000000000000000000006020830152604082019050919050565b600061286e603183612ce8565b91507f4552433732313a207472616e736665722063616c6c6572206973206e6f74206f60008301527f776e6572206e6f7220617070726f7665640000000000000000000000000000006020830152604082019050919050565b6128d081612e29565b82525050565b60006128e28285612202565b91506128ee8284612202565b91508190509392505050565b600060208201905061290f6000830184612172565b92915050565b600060608201905061292a6000830186612172565b6129376020830185612172565b61294460408301846128c7565b949350505050565b60006080820190506129616000830187612172565b61296e6020830186612172565b61297b60408301856128c7565b818103606083015261298d8184612190565b905095945050505050565b60006020820190506129ad6000830184612181565b92915050565b600060208201905081810360008301526129cd81846121c9565b905092915050565b600060208201905081810360008301526129ee81612233565b9050919050565b60006020820190508181036000830152612a0e81612299565b9050919050565b60006020820190508181036000830152612a2e816122ff565b9050919050565b60006020820190508181036000830152612a4e8161233f565b9050919050565b60006020820190508181036000830152612a6e816123a5565b9050919050565b60006020820190508181036000830152612a8e816123e5565b9050919050565b60006020820190508181036000830152612aae8161244b565b9050919050565b60006020820190508181036000830152612ace816124b1565b9050919050565b60006020820190508181036000830152612aee81612517565b9050919050565b60006020820190508181036000830152612b0e8161257d565b9050919050565b60006020820190508181036000830152612b2e816125e3565b9050919050565b60006020820190508181036000830152612b4e81612623565b9050919050565b60006020820190508181036000830152612b6e81612689565b9050919050565b60006020820190508181036000830152612b8e816126ef565b9050919050565b60006020820190508181036000830152612bae8161272f565b9050919050565b60006020820190508181036000830152612bce81612795565b9050919050565b60006020820190508181036000830152612bee816127fb565b9050919050565b60006020820190508181036000830152612c0e81612861565b9050919050565b6000602082019050612c2a60008301846128c7565b92915050565b6000604051905081810181811067ffffffffffffffff82111715612c5757612c56612fae565b5b8060405250919050565b600067ffffffffffffffff821115612c7c57612c7b612fae565b5b601f19601f8301169050602081019050919050565b600067ffffffffffffffff821115612cac57612cab612fae565b5b601f19601f8301169050602081019050919050565b600081519050919050565b600081519050919050565b600082825260208201905092915050565b600082825260208201905092915050565b600081905092915050565b6000612d0f82612e29565b9150612d1a83612e29565b9250827fffffffffffffffffffffffffffffffffffffffffffffffffffffffffffffffff03821115612d4f57612d4e612f21565b5b828201905092915050565b6000612d6582612e29565b9150612d7083612e29565b925082612d8057612d7f612f50565b5b828204905092915050565b6000612d9682612e29565b9150612da183612e29565b925082821015612db457612db3612f21565b5b828203905092915050565b6000612dca82612e09565b9050919050565b60008115159050919050565b60007fffffffff0000000000000000000000000000000000000000000000000000000082169050919050565b600073ffffffffffffffffffffffffffffffffffffffff82169050919050565b6000819050919050565b82818337600083830152505050565b60005b83811015612e60578082015181840152602081019050612e45565b83811115612e6f576000848401525b50505050565b60006002820490506001821680612e8d57607f821691505b60208210811415612ea157612ea0612f7f565b5b50919050565b6000612eb282612e29565b91507fffffffffffffffffffffffffffffffffffffffffffffffffffffffffffffffff821415612ee557612ee4612f21565b5b600182019050919050565b6000612efb82612e29565b9150612f0683612e29565b925082612f1657612f15612f50565b5b828206905092915050565b7f4e487b7100000000000000000000000000000000000000000000000000000000600052601160045260246000fd5b7f4e487b7100000000000000000000000000000000000000000000000000000000600052601260045260246000fd5b7f4e487b7100000000000000000000000000000000000000000000000000000000600052602260045260246000fd5b7f4e487b7100000000000000000000000000000000000000000000000000000000600052604160045260246000fd5b6000601f19601f8301169050919050565b612ff781612dbf565b811461300257600080fd5b50565b61300e81612dd1565b811461301957600080fd5b50565b61302581612ddd565b811461303057600080fd5b50565b61303c81612e29565b811461304757600080fd5b5056fea2646970667358221220199d949d2c7ceab0f6cb336047d136f78c893a3d6b86843b2b3066206765be7b64736f6c63430008000033",
  "linkReferences": {},
  "deployedLinkReferences": {}
}